:020000040800F2
:10000000F03C00209D0100080D570008A7010008E2
:1000100009570008A53600087D5D000800000000B3
:1000200000000000000000000000000005010008C2
:10003000FD3600080000000049010008D157000803
:10004000B7010008B7010008B7010008B7010008B0
:10005000B7010008B7010008B7010008B7010008A0
:10006000B7010008B7010008B7010008B701000890
:10007000B7010008B7010008B7010008B701000880
:10008000B7010008B7010008B7010008B701000870
:100090006D5D0008A9360008B7010008B701000827
:1000A000B7010008B7010008B7010008B701000850
:1000B000B7010008B701000865580008B70100083B
:1000C000B7010008B7010008B7010008B701000830
:1000D000B7010008B70100085D5D0008B70100081E
:1000E000FF360008B7010008B7010008DFF810D09C
:1000F00000F0D2FC00480047F5660008AFF300802E
:10010000F03C0020224B19680868B0E8F00F80F33B
:100110000988BFF36F8F4FF0000080F311884EF015
:100120000D0E70470000000006480068006880F36C
:10013000088862B661B6BFF34F8FBFF36F8F00DFE1
:1001400000BF00BF08ED00E0EFF30980BFF36F8F41
:100150000F4B1A6820E9F00F106008B54FF05000FF
:1001600080F31188BFF34F8FBFF36F8F07F0B4FC9C
:100170004FF0000080F31188BDE808401968086856
:10018000B0E8F00F80F30988BFF36F8F704700BFAE
:1001900014000020EFF305807047000006488047F8
:1001A00006480047FEE7FEE7FEE7FEE7FEE7FEE75C
:1001B000FEE7FEE7FEE7FEE763580008ED000008F3
:1001C000202A04DB203A21FA02F00021704721FAAC
:1001D00002F3D040C2F12002914008431946704713
:1001E00040EA01039B0703D009E008C9121F08C0B9
:1001F000042AFAD203E011F8013B00F8013B521E39
:10020000F9D27047D2B201E000F8012B491EFBD2AF
:1002100070470022F6E710B513460A460446194611
:10022000FFF7F0FF204610BD421C10F8011B00290B
:10023000FBD1801A7047F0B480EA0102D40F42006B
:10024000B2EB410F02D20246084611464A0042D0A4
:10025000C30DDDB2C1F3C752AD1A202D35DAC1F39B
:10026000160141F4000204B15242C5F1200602FA1F
:1002700006F12A411044B3EBD05F23D0C4B1012D65
:10028000A0EBC35009DCF0BC4FF0004202EAC352BD
:10029000DBB200F5000000F05CBB400000F18070B4
:1002A00000EBC350A0F1807040EAD170490009E032
:1002B000490841EAC071A0EBC35000F500004008B6
:1002C00000EBC350F0BC00F03BBB6142012202EBEB
:1002D0004101001BF6E7F0BC704781F00041AAE73E
:1002E00080F00040A7E780EA010210B502F0004369
:1002F000400022D04A001FD0010E01EB1261C0F372
:100300005600C2F3560240F4000042F40002A0FB83
:10031000022000047F39140400D0401C50EA12402F
:1003200001D44000491EC2B20C0604EBD010401CA0
:100330004008802A02D003E0002010BD20F0010018
:10034000002900DA0020184310BD30B480EA010211
:1003500002F0004530F0004221F0004013D090B18F
:10036000C30DD40DC2F31601C0F31600E41A41F414
:10037000000140F400027D34914201D3641C00E08E
:100380004900002C02DA30BC002070474FF4000016
:100390000023914201D3891A034340084FEA4101E7
:1003A000F7D151B1914202D14FF0004105E002D2A4
:1003B0004FF0010101E06FF0010103EBC45028444C
:1003C00030BC00F0BDBA2DE9FE4F804681EA030043
:1003D000C00F0C46009021F0004123F00045B8EB1F
:1003E0000200A94105D24046214690461C460B46D4
:1003F000024623F00040104347D0270DC7F30A0000
:10040000C3F30A510290401A019040286BDAC3F3FB
:10041000130040F4801B0098924620B10023D2EBD9
:10042000030A63EB0B0B01985946C0F1400250469A
:1004300000F065FA06460D4650465946019A00F00E
:100440006DFA10EB08006141002487EA115284EA3A
:10045000E7731A4340D0009A62B3019A012A4FEA27
:10046000075215DC001B61EB02014FF0004202EA6B
:100470000752CDE90042001C41F5801132462B465F
:1004800000F0A4FA03B0BDE8F08F40462146F9E73A
:10049000001B61EB0201001C41F5801300185B4159
:1004A0002018A2F5001747EB030140EAD570B619F2
:1004B0006D4111E06D084FEA360645EAC0754FEA16
:1004C0000752001B61EB0201001C41F58011490835
:1004D0004FEA30000019514132462B4603B0BDE8C7
:1004E000F04F00F064BA0098012240000023D0EBE6
:1004F000020263EBE073009821464FEAE074B8EB28
:10050000000061EB0401E9E783F000435BE781F061
:10051000004158E72DE9FE4F81EA030404F000444E
:1005200021F0004100944FF0000B23F0004350EA0B
:1005300001045ED052EA03045BD0C3F30A54C1F352
:100540000A552C44A4F2F3340194A0FB0254C1F3E5
:10055000130141F48011C3F3130343F4801301FB2F
:10056000024400FB034E840A970A44EA815447EA96
:100570008357A4FB076802958D0A05FB07854FEAA0
:10058000932C04FB0C542705029D4FEA065847EABA
:100590001637B5EB08056EEB070C870E920E47EA8F
:1005A000811742EA8312A7FB0201B6EB0B0164EB51
:1005B00000042B0D43EA0C335E1844EB1C50DA4662
:1005C0005146E7FB0201C5F313044FEA0B3343EA3C
:1005D00014534FEA0432019C43EA0603A4F10C04CD
:1005E0000294009CCDE900B400F0F0F903B0BDE83E
:1005F000F08F00200146F9E72DE9F04D81EA030470
:1006000004F0004B21F0004514464FF0000A23F09F
:10061000004150EA050220D054EA01021DD0C5F382
:100620000A570246C5F31303C1F31300C1F30A5678
:1006300040F4801543F48013A7EB0608101BD64640
:1006400008F2FD3873EB050002D308F1010801E060
:1006500092185B41B8F1000F03DA00200146BDE8B3
:10066000F08D00204FF48011064684460EE0171BE3
:1006700073EB050705D3121B63EB050306434CEA36
:10068000010C49084FEA300092185B4150EA01071B
:10069000EDD152EA030012D082EA040083EA050198
:1006A000084305D0101BAB4106D20122002306E00F
:1006B00000224FF0004302E06FF0010253101AEBEA
:1006C00006004CEB085110EB0A0041EB0B01BDE8B2
:1006D000F04D00F06CB9C10F80EAE0700844CA0721
:1006E0009623002100F035B996230022114600F030
:1006F00030B90EB5C10F80EAE0700844CA07002186
:1007000040F233438DE80E000A460B4600F05EF9D6
:1007100003B000BD0EB540F2334102910021CDE996
:1007200000110A460B4600F051F903B000BD00F07D
:10073000004220F00040C10DC0F3160040F400005C
:100740007F2901DA00207047962903DCC1F1960168
:10075000C84001E096398840002AF4D040427047F2
:1007600020F00040C10DC0F3160040F400007F29C6
:1007700001DA00207047962903DCC1F19601C840D8
:10078000704796398840704700F0004230F00040D2
:100790000AD0C10D01F56071C0F3160042EA0151A3
:1007A000C20840071143704700200146704700000F
:1007B00030B5041E71F1000404DB4FF000444042E8
:1007C00064EB0101141E73F1000405DB1C464FF0BD
:1007D0000043524263EB04038B4208BF824230BDA8
:1007E00030B5041E71F1000404DB4FF000444042B8
:1007F00064EB0101141E73F1000405DB1C464FF08D
:100800000043524263EB0403994208BF904230BD5B
:1008100001F0004330B421F0004150EA010206D05B
:100820000A0DA2F56072C1F31301002A02DC30BC8C
:1008300000207047440F44EAC104C100E01830BCF6
:1008400000EBC25000F07CB8002801DBC0F1004092
:10085000002901DBC1F1004181427047002801DB22
:10086000C0F10040002901DBC1F10041884270471E
:1008700030B50B46014600202022012409E021FA70
:1008800002F59D4205D303FA02F5491B04FA02F56D
:100890002844151EA2F10102F1DC30BD2DE9F05F04
:1008A0000546002092469B468846064681464024DF
:1008B0001BE02846414647462246FFF781FC534647
:1008C0005A46C01A914110D311461846224600F0EC
:1008D00016F82D1A67EB01084F4622460120002129
:1008E00000F00DF817EB00094E41201EA4F10104A1
:1008F000DFDC484631462A464346BDE8F09F202AC1
:1009000004DB203A00FA02F1002070479140C2F166
:10091000200320FA03F3194390407047202A06DB96
:10092000CB17203A41FA02F043EAE07306E041FABD
:1009300002F3D040C2F120029140084319467047AB
:100940000029A8BF7047401C490008BF20F00100E3
:10095000704710B4B0FA80FC00FA0CF050EA0104C1
:1009600004BF10BC704749B1CCF1200421FA04F453
:1009700011FA0CF118BF012121430843A3EB0C012C
:10098000CB1D4FEA00614FEA102042BF002010BC8F
:10099000704700EBC35010440029A4BF10BC70473F
:1009A000401C490008BF20F0010010BC704710B582
:1009B000141E73F1000408DA401C41F10001921882
:1009C0005B411A4301D120F0010010BD2DE9F04D2B
:1009D00092469B4611B1B1FA81F202E0B0FA80F280
:1009E00020329046FFF78BFF04460F4640EA0A008C
:1009F00041EA0B0153465A46084313D0114653EAC5
:100A0000010019D0C8F140025046FFF7D9FB054656
:100A10000E46504659464246FFF771FF084305D03F
:100A2000012004E020463946BDE8F08D0020054352
:100A300046EAE0762C4337430A986305E40AA0EBC4
:100A400008000022FD0A44EA47540A3002D500207B
:100A50000146E9E7010510196941DDE9084500197A
:100A60006941BDE8F04DA2E7C1F30A52C1F3130199
:100A700040F2FF3341F480119A4202DA002001462D
:100A8000704740F233439A42A2F2334202DC5242B0
:100A9000FFF796BBFFF733BF064C074D06E0E06853
:100AA00040F0010394E8070098471034AC42F6D3B5
:100AB000FFF720FB3C8C00085C8C000870B58C189C
:100AC00010F8015B15F0070301D110F8013B2A1162
:100AD00006D110F8012B03E010F8016B01F8016B4F
:100AE0005B1EF9D12B0705D40023521E0DD401F84B
:100AF000013BFAE710F8013BCB1A921C03E013F814
:100B0000015B01F8015B521EF9D5A142D8D3002048
:100B100070BD00002DE9F84F3F4988683F49FFF755
:100B2000E2FB0090FFF703FEB0F1000B01DB59463A
:100B300001E0CBF100010846FFF7DBFD8046002213
:100B4000374BFFF759FD06460022364BFFF754FDA1
:100B50000446FFF75DFE824633480078032815D12E
:100B6000324A51682C4AD068FFF778FE04D84FF01B
:100B70007E502F49C86009E02C4AD168264AD068C7
:100B8000FFF762FE02D800202949C8602648007895
:100B9000012818D12649C86A5146FFF74CFB044684
:100BA0002348816A2046FFF74FFE07D82049C86ACC
:100BB0005146FFF740FB1E49C86219E01C48806A95
:100BC0001B49C86214E018480078022810D118495F
:100BD000C86A5146FFF742FE07D81549C86A514610
:100BE000FFF77BFB1249C86202E000201049C8628F
:100BF0000F4A916AD06AFFF7A8FB0D49C860C86820
:100C00004FF07E51FFF72AFE03D24FF07E50084985
:100C1000C860BDE8F88F00002838002000007A4442
:100C200000408F400020AC40BA010020D8010020D5
:100C30008C00002010B500F03BF910BD2DE9F05FED
:100C40001749C8681749FFF74EFB0446FFF788FDB0
:100C50001FFA80FA1249C8681249FFF744FB83461D
:100C6000FFF77EFD1FFA80F9484600F0CFF80446F2
:100C7000FFF750FD074600220B4BFFF7BDFC054672
:100C8000FFF7C6FD0949C8600846406A88620A46FF
:100C9000D168906AFFF727FB0449C862BDE8F09F5E
:100CA0002838002000007A4400408F408C0000204B
:100CB00070B5204AD168204A1279521E1D4B0C3360
:100CC00053F83200FFF709FB1C494861002400205B
:100CD00008610BE0174A343252F82410174A1069A1
:100CE000FFF7A9FA15490861601CC4B212480079DF
:100CF000A042EFDC10490879FFF7F6FC05460F49E2
:100D000008692946FFF721FB0C490861094A9168E7
:100D10005068FFF7E8FA0949886107480079401EE2
:100D200004490C3151F830000449C8610148C068D9
:100D3000086270BD28380020BA0100208C00002015
:100D400010B5084A0021084805F038FE044644B9A9
:100D500000BF06A108A005F023FF0BA005F020FFAF
:100D600000BF10BD388A0008950E0008416E616C06
:100D700079736973000000005B424D532045525265
:100D80004F525D5B25735D0043726561746520544D
:100D900061736B204661696C0D0A00002DE9F04714
:100DA00015480078042824D141F2883005F0B6FCBB
:100DB0001249C8681249FFF796FA8246FFF7D0FC3D
:100DC0001FFA80F9484600F021F80446FFF7A2FC1C
:100DD000074600220B4BFFF70FFC0546FFF718FDF7
:100DE0000949C8600A46D168906AFFF77CFA06494B
:100DF000C862BDE8F0870000BA0100202838002052
:100E000000007A4400408F408C00002070B50446FA
:100E100000261C480088A04200DB31E01948B0F8E9
:100E2000C800A04202DC4FF47A7629E0234664220F
:100E30000021144806F0AAFB85B2124830F81500CC
:100E4000A04206D105EB85004FF6FF7101EA40068E
:100E500015E00C4830F815100246681C32F81000F6
:100E6000081A114631F81510091B01EB81014900E0
:100E700091FBF0F005EB850100EB410086B200BF6D
:100E8000304670BDBC00002010B5FFF787FFFFF7AC
:100E900041FE10BDFFF7D2FE09E0FFF709FFFFF7A3
:100EA000C9FEFFF7F1FF4FF47A7005F037FCF4E765
:100EB0002DE9F041394908683949FFF714FA074626
:100EC000FFF735FC04B23548806C08B9BDE8F08105
:100ED0003448B0F90000844209DD3248B0F900001E
:100EE000201A0A2802DB2F4804800AE0EEE72D488A
:100EF000B0F90000001B0A2802DB2A48048000E049
:100F0000E4E7FA2C01DB01251CE0642C03DBFA2C5E
:100F100001DA022516E0002C03DB642C01DA03253C
:100F200010E014F1C80F04DB14F10A0F01DA0425F4
:100F300008E014F5967F04DB14F1C80F01DA0525EB
:100F400000E00625A4F1FA0068430A2190FBF1F0C5
:100F500000F57A7086B240F21A40864201DD0646FC
:100F600004E040F2EE20864200DA06463046FFF703
:100F7000BBFB80460C48416A4046FFF7B4F9074680
:100F80000A49FFF7E2F9084988620A46D168906A7F
:100F9000FFF7A9F90449C86200BF97E72838002085
:100FA00000002041860100208C00002000007A44CF
:100FB00070B504464FF47A7004FB00F529460748E3
:100FC000006805F0C7FD00BF05A107A005F0E8FD1A
:100FD00009A005F0E5FD00BF70BD0000AC010020D8
:100FE000456E6572677900005B424D5320494E465D
:100FF0004F5D5B25735D000042616C616E6365202F
:1010000054696D65722053746172740D0A0000009A
:1010100010B50446012143F6FF7000F02DFC0020BE
:101020000A4988830A49087005F094FB41F2883127
:1010300008440849086000BF07A109A005F0B0FDF9
:101040000BA005F0ADFD00BF10BD00008801002021
:10105000B0010020B4010020456E65726779000080
:101060005B424D5320494E464F5D5B25735D00004A
:1010700042616C616E63652054696D657220456ED6
:10108000640D0A0070B54D49C8680021FFF7DCFB0C
:1010900014D1012240214A4802F0C0FF01228021E0
:1010A000474802F0BBFF01221102454802F0B6FF9B
:1010B00001225102424802F0B1FF7EE03F49C86878
:1010C000FFF762FB044600223E4BFFF771FB15D889
:1010D000012240213A4802F0A1FF01228021384834
:1010E00002F09CFF01221102354802F097FF002216
:1010F0004FF40071324802F091FF5EE02F49C8685A
:10110000FFF742FB044600222F4BFFF751FB16D896
:10111000012240212A4802F081FF01228021284833
:1011200002F07CFF00224FF48071254802F076FF28
:1011300000224FF40071224802F070FF3DE01F4989
:10114000C868FFF721FB04460022204BFFF730FB65
:1011500016D8012240211A4802F060FF00228021A7
:10116000174802F05BFF00224FF48071144802F030
:1011700055FF00224FF40071114802F04FFF1CE0B0
:101180000E49C8684FF07E51FFF75EFB15D800226C
:1011900040210B4802F042FF00228021084802F063
:1011A0003DFF00224FF48071054802F037FF002216
:1011B0004FF40071024802F031FF70BD8C00002036
:1011C000000C01400000D03F0000E03F0000E83F7D
:1011D00010B5364A5169364A9068FFF73FFB25D271
:1011E00034480068C83033490860084600683C212C
:1011F000B0FBF1F02D4991F82210884253D3012021
:1012000000F042FB294991F8230001F0ADF90420D8
:101210002949088001202949087000BF28A12AA077
:1012200005F0BEFC2DA005F0BBFC3CE02048806C26
:1012300000B910BD1D4A516A1D4A926C521E1C4BCA
:1012400053F82200FFF70AFB11D2012000F01CFB2B
:1012500020201949088001201849087000BF18A1F2
:1012600019A005F09DFC21A005F09AFC1BE00F4A97
:10127000516B0F4A1068FFF7E7FA11D2012000F016
:1012800003FB80200C49088001200C49087000BF36
:101290000BA10DA005F084FC18A005F081FC02E074
:1012A00000200449086000BFC3E70000D801002007
:1012B0002838002024020020D40100202002002031
:1012C00050726F74656374005B424D5320574152F6
:1012D0004E494E475D5B25735D0000004F43432040
:1012E0005469676765720D0A000000004F5443207F
:1012F0005469676765720D0A000000004C54432072
:101300005469676765720D0A0000000010B51E4839
:10131000806C00B910BD1D4AD16A1B4A926C521EE6
:10132000194B53F82200FFF799FA11D2012000F06F
:10133000B2FA40201649088001201649087000BF03
:1013400015A117A005F02CFC1AA005F029FC19E046
:101350000E4AD16B0C4A1068FFF776FA12D20120C0
:1013600000F099FA4FF4807009490880012009497A
:10137000087000BF08A10AA005F012FC11A005F03A
:101380000FFC00BF00BFC5E728380020D8010020AF
:10139000D40100202002002050726F746563740035
:1013A0005B424D53205741524E494E475D5B25737A
:1013B0005D0000004F5444205469676765720D0A50
:1013C000000000004C5444205469676765720D0AA0
:1013D000000000002DE9F0415E48007800287DD132
:1013E0005D48C0780028FAD105F0B4F95B49096876
:1013F000884273D358480078032803D056480078B1
:1014000001286CD15648C668564A1169524A127969
:10141000521E00F10C0353F83200FFF71FFA7DD281
:1014200000215148006805F0E5F901255EE04A48D1
:101430000079411B4A480C3050F83170314638462B
:10144000FEF74BFF0446474841692046FFF706FA7E
:1014500049D24FF0000840480079411B40480C3009
:1014600000EBC10004793CB93E48007F00F0020067
:1014700008BB4FF001081EE037480179601C81422B
:1014800009D13848808B611E01228A40104090B9F2
:101490004FF001080FE03348808B611E01228A4023
:1014A000104040B92F48808B611C01228A401040B7
:1014B00008B94FF00108B8F1010F13D100BF2BA1FB
:1014C0002CA005F06DFB611C2EA005F069FB00BF90
:1014D0002448808B0121A140084301E037E02FE040
:1014E0002049888300E006E0681CC5B21A480079EC
:1014F000401CA8429BDC00BF1A48808BC0B1194930
:10150000888B002100F0B8F916498869FFF750FD73
:1015100001201049087000BF14A100E009E015A0E7
:1015200005F03EFB1CA005F03BFB00BFBDE8F081D1
:1015300000BF00200B4988830B48006805F004FABF
:1015400005F008F941F2883108440449086000BFF9
:10155000ECE70000B0010020BA010020B401002037
:101560002838002088010020A8010020456E6572FF
:10157000677900005B424D5320494E464F5D5B2525
:10158000735D000042616C616E63652043656C6C45
:101590003A25640D0A00000042616C616E636520AB
:1015A00053746172740D0A0010B550480088002809
:1015B00076D14F480078012804D0022816D003289D
:1015C0005FD127E04B4A11684B4AD068FFF746F9D4
:1015D0000BD8012000F058F900BF48A149A005F040
:1015E000DFFA4CA005F0DCFA00BF4BE0414A9168FD
:1015F000414AD068FFF728F90BD8012000F04BF9D9
:1016000000BF3EA13FA005F0CBFA46A005F0C8FA06
:1016100000BF37E036484078E0B9364A5168364A6C
:10162000D068FFF711F915D200214348006805F092
:10163000E1F878B9002000F027F93F48006805F08C
:1016400083F900BF2DA12FA005F0AAFA3BA005F059
:10165000A7FA00BF2648807890B9264AD168264A62
:10166000D068FFF7FBF80BD2002000F014F900BFA0
:1016700022A124A005F094FA34A005F091FA00BF4D
:1016800000E000BF00BF1A48407835490978884219
:1016900012D017484078012803D100F0F5F807E090
:1016A00022E013480078042802D1002000F0ECF872
:1016B0000F4840782A4908700D48807829490978F0
:1016C000884211D00A488078012802D100F0E3F85E
:1016D00006E007480078042802D1002000F0DBF87B
:1016E000034880781F49087010BD0000D401002015
:1016F000BA010020880100208C000020456E657230
:10170000677900005B424D5320494E464F5D5B2593
:10171000735D000053746F70204368617267650DDC
:101720000A00000053746F7020446973636861722B
:1017300067650D0A00000000A80100205374617263
:1017400074204368617267650D0A0000537461720A
:1017500074204469736368617267650D0A00000054
:10176000B8010020B901002010B5164A0021164822
:1017700005F024F9044644B900BF14A115A005F0F2
:101780000FFA18A005F00CFA00BF1B4B00221146FF
:101790001A4805F083F91A4908600846006840B9FC
:1017A00000BF0AA10BA005F0FBF916A005F0F8F99F
:1017B00000BF194A0121084605F05CF81749086086
:1017C00010BD00005C8A000821180008456E657293
:1017D000677900005B424D53204552524F525D5B8A
:1017E00025735D00437265617465205461736B20DD
:1017F0004661696C0D0A0000808A0008111000081B
:10180000AC0100204372656174652054696D657296
:10181000204661696C0D0A00908A0008A80100202A
:1018200010484078104908700E4880780F490870B9
:1018300004F090FF41F2883108440D4908600948DE
:10184000C07828B94FF0FF310A48006804F0D2FF91
:1018500006E0FFF7A9FEFFF7BDFDC82004F05EFF1C
:10186000F7E70000BA010020B8010020B90100200C
:10187000B4010020A801002070B504460D46294699
:10188000204600F0ADFF70BD10B504462146012092
:1018900001F056F810BD10B504462146022001F0B3
:1018A0004FF810BD10B5084A0021084805F086F829
:1018B000044644B900BF06A107A005F071F90AA0CB
:1018C00005F06EF900BF10BD148A0008391D00082C
:1018D000496E666F000000005B424D532045525236
:1018E0004F525D5B25735D004372656174652054E2
:1018F00061736B204661696C0D0A0000F0B593B00E
:1019000000BFA0A1A1A005F04BF9A44805F048F93B
:1019100000BFA349886AFEF737FF05462A460B46F3
:10192000A0A103A804F02CFA00BF96A197A005F08F
:1019300037F903A9A4A005F033F900BF9849C86A94
:10194000FEF722FF05462A460B46A1A103A804F094
:1019500017FA00BF8BA18DA005F022F903A99AA068
:1019600005F01EF900BFA3A005F01AF9FFF78AFBE6
:101970008B49C868A049FEF7B6FC0746FEF704FF8E
:1019800005462A460B469DA103A804F0F9F900BFBD
:101990007CA17EA005F004F903A98BA005F000F955
:1019A00000BF94A005F0FCF87D49C869FEF7ECFE85
:1019B00005462A460B4697A103A804F0E1F900BFAB
:1019C00070A172A005F0ECF803A97FA005F0E8F87B
:1019D00000BF7349086AFEF7D7FE05462A460B4644
:1019E00093A103A804F0CCF900BF66A167A005F09D
:1019F000D7F803A974A005F0D3F800BF6849486977
:101A0000FEF7C2FE05462A460B4690A103A804F045
:101A1000B7F900BF5BA15DA005F0C2F803A96AA0F9
:101A200005F0BEF800BF5E490869FEF7ADFE054649
:101A30002A460B468FA103A804F0A2F900BF51A1CA
:101A400052A005F0ADF803A95FA005F0A9F800BF0A
:101A500053498869FEF798FE05462A460B468DA134
:101A600003A804F08DF900BF46A148A005F098F83E
:101A700003A955A005F094F800BF5EA005F090F80A
:101A80008B494868FEF780FE05462A460B4689A129
:101A900003A804F075F900BF3AA13CA005F080F856
:101AA00003A949A005F07CF800BF81498868FEF7CA
:101AB0006BFE05462A460B4685A103A804F060F993
:101AC00000BF30A131A005F06BF803A93EA005F0DE
:101AD00067F800BF002417E0754951F82400FEF7AD
:101AE00053FE621CCDE9000180A103A804F048F96F
:101AF00000BF24A125A005F053F803A932A005F0EA
:101B00004FF800BF601CC4B26948806CA042E3D8A3
:101B100038A005F045F8002425E06549343151F836
:101B20002400FEF731FE05460E467648808B0121E3
:101B3000A1400840002801DD73A000E012A0621C53
:101B400073A1CDE90056029003A804F019F900BF73
:101B50000CA10EA005F024F803A91BA005F020F8A5
:101B600000BF601CC4B272480079A042D5DC00BF3F
:101B700004A106A005F014F86E4805F011F800BFA6
:101B800013B0F0BD496E666F000000005B424D531C
:101B900020494E464F5D5B25735D00008C8B00082D
:101BA0008C00002042617474657279205265616C0A
:101BB000204361706163697479203D2025302E31A6
:101BC00066412F480000000025730D0A0000000048
:101BD000426174746572792052656D61696E20434B
:101BE00061706163697479203D2025302E33664130
:101BF0002F4800000D0A00000000C84242617474C2
:101C000065727920534F43203D2025302E316625C3
:101C10002500000043656C6C204D617820566F6C88
:101C200074616765203D2025302E33665600000024
:101C300043656C6C204D696E20566F6C74616765EE
:101C4000203D2025302E33665600000043656C6C25
:101C5000204D617820566F6C746167652044696619
:101C6000666572656E6365203D2025302E336656AD
:101C70000000000043656C6C204176657261676509
:101C800020566F6C74616765203D2025302E3366C9
:101C90005600000042617474657279205265616C6F
:101CA00020506F776572203D2025302E3366570017
:101CB000283800204261747465727920566F6C7404
:101CC000616765203D2025302E33665600000000F8
:101CD000426174746572792043757272656E742006
:101CE0003D2025302E3366410000000054656D70A4
:101CF0006174757265202564203D2025302E316683
:101D000000000000880100202D2D2D3E0000000065
:101D100043656C6C252D326420566F6C7461676569
:101D2000203D20252D352E336656202573000000DA
:101D3000BA010020448B000805E0FFF7DFFD4FF4F7
:101D4000FA6004F0EBFCF8E710B52F480088FA3091
:101D50002D4908802D480078012809D108460088BF
:101D6000FA2805DB01F026FC00202749088005E061
:101D70002648007810B900202349088024480088AC
:101D8000FA302349088023480078012809D1084601
:101D90000088FA2805DB01F0CDFB00201C490880F3
:101DA00005E01C48007810B90020194908801A483D
:101DB0000088FA30184908801848007801280ED1A8
:101DC000084601880088401C134A1080B1F5FA6F5C
:101DD00005DB01F0BBFB00200F49088005E00F4840
:101DE000007810B900200C4908800D4800780128BF
:101DF00008D10C480078012804D101F08FFB0020A5
:101E00000749087010BD0000C6010020C101002074
:101E1000C8010020C2010020CA010020C301002027
:101E2000C0010020C4010020012001490870704752
:101E3000C001002010B5084A0021084804F0BEFD8A
:101E4000044644B900BF06A107A004F0A9FE0AA0F9
:101E500004F0A6FE00BF10BDA08A00089120000873
:101E60004D6F6E69746F72005B424D532045525244
:101E70004F525D5B25735D0043726561746520544C
:101E800061736B204661696C0D0A000070B558489B
:101E90000078042820D157498868FEF775FC04466D
:101EA000554A564BFEF79CFC09D952498868FEF703
:101EB0006BFC0446504A524BFEF77AFC0BD80320C9
:101EC0004B49087000BF4FA150A004F069FE53A019
:101ED00004F066FE00BF70BD46498868FEF754FCFA
:101EE0000446454A454BFEF763FC3FD241498868AA
:101EF000FEF74AFC0446404A414BFEF771FC35D2DE
:101F000003203B490870484800684849884218D374
:101F100000214748006804F06DFCB8B90020424930
:101F200008600420324908704148006804F00CFD44
:101F300000BF34A135A004F033FE3EA004F030FE13
:101F400004E039480068FA30374908603E480078B4
:101F500003284BD003203C49087000BF29A12BA0C7
:101F600004F01EFE39A004F01BFE3FE02149886802
:101F7000FEF70AFC0446204A204BFEF731FC15D838
:101F80000020294908600120194908702E4800786E
:101F900001282BD001202C49087000BF19A11BA0DB
:101FA00004F0FEFD2FA004F0FBFD1FE0114988683E
:101FB000FEF7EAFB0446104A114BFEF7F9FB15D871
:101FC0000020194908600220094908701E4800785D
:101FD00002280BD002201C49087000BF09A10BA0E9
:101FE00004F0DEFD24A004F0DBFD00BF00BF72E7BB
:101FF000BA010020283800207B14AE47E17A943FD4
:10200000E17A94BF4D6F6E69746F72005B424D53FD
:1020100020494E464F5D5B25735D000057616B653F
:102020002055700D0A000000D001002080EE36001F
:10203000A8010020456E74727920536C656570208C
:102040004D6F64650D0A0000CC010020456E74726E
:1020500079205374616E646279204D6F64650D0A56
:1020600000000000456E74727920436861726765F4
:10207000204D6F64650D0A00456E747279204469C5
:1020800073636861726765204D6F64650D0A0000B7
:1020900006E0FFF759FEFFF7F9FEFA2004F03EFBD9
:1020A000F7E7000010B500BF04A106A004F078FD1A
:1020B00008A004F075FD00BF10BD000050726F74E1
:1020C000656374005B424D5320494E464F5D5B256E
:1020D000735D0000424D535F50726F7465637448C6
:1020E000774465766963650D0A00000010B52648DF
:1020F000008801282AD0022835D0082802D01028CC
:102100003ED111E0214991F8200000F02DFA012084
:102110001F49087000BF1FA120A004F041FD24A0AA
:1021200004F03EFD00BF2CE0184991F8210000F0BA
:102130001BFA01201649087000BF16A117A004F071
:102140002FFD1FA004F02CFD00BF1AE00120104954
:10215000087000BF0FA111A004F022FD1CA004F024
:102160001FFD00BF0DE001200949087000BF09A153
:102170000AA004F015FD19A004F012FD00BF00E054
:1021800000BF00BF10BD0000D4010020D801002016
:102190002002002050726F74656374005B424D53DF
:1021A000205741524E494E475D5B25735D0000004C
:1021B0004F4344205469676765720D0A00000000B0
:1021C000534344205469676765720D0A000000009C
:1021D0004F56205469676765720D0A0055562054A2
:1021E00069676765720D0A000348008810B9082006
:1021F0000149088070470000D4010020034800888E
:1022000010B901200149088070470000D401002066
:1022100010B500BF04A106A004F0C2FC08A004F0A1
:10222000BFFC00BF10BD000050726F746563740086
:102230005B424D5320494E464F5D5B25735D000068
:10224000424D535F50726F7465637448774F767276
:10225000640D0A000348008810B910200149088065
:1022600070470000D40100200348008810B9022004
:102270000149088070470000D401002010B5124ABF
:102280000021124804F09AFB044644B900BF10A193
:1022900011A004F085FC14A004F082FC00BF174BD1
:1022A00000221146164804F0F9FB1649086008465A
:1022B000006840B900BF06A107A004F071FC12A09D
:1022C00004F06EFC00BF10BDC48A0008FD250008A4
:1022D00050726F74656374005B424D5320455252D7
:1022E0004F525D5B25735D004372656174652054D8
:1022F00061736B204661696C0D0A0000E88A000872
:10230000352600081C020020437265617465205464
:10231000696D6572204661696C0D0A0010B51A4836
:102320000088202810D006DC04280CD0082811D002
:10233000102817D111E040280DD0802805D0B0F525
:10234000807F0FD108E000BF00BF10494878FFF739
:102350009BFA08E000BF00BF00BF0C498878FFF778
:102360009AFA00E000BF00BF002007490880084932
:10237000087000BF07A109A004F012FC0BA004F034
:102380000FFC00BF10BD0000D4010020BA010020E6
:102390002002002050726F74656374005B424D53DD
:1023A00020494E464F5D5B25735D000050726F748F
:1023B0006563742052656C696576650D0A000000DE
:1023C00010B547480088402849D006DC01280AD0CB
:1023D00002281CD020287DD12DE0802853D0B0F5D4
:1023E000807F7AD163E03F4A91683F4AD06AFEF726
:1023F0002BFA0BD202203D49087000BF3CA13EA041
:1024000004F0CEFB40A004F0CBFB00BF66E0354AF1
:102410001169354AD068FEF721FA0BD20220334900
:10242000087000BF32A134A004F0BAFB3AA004F057
:10243000B7FB00BF52E02B4A916A2B4A1068FEF7A7
:1024400003FA0BD202202949087000BF28A12AA054
:1024500004F0A6FB34A004F0A3FB00BF3EE0214A39
:10246000116B214A1068FEF7EFF90BD202201F49C9
:10247000087000BF1EA120A004F092FB2EA004F063
:102480008FFB00BF2AE0174A916B174A1068FEF7CE
:10249000E5F90BD202201549087000BF14A116A05F
:1024A00004F07EFB28A004F07BFB00BF16E00D4A81
:1024B000116C0D4A1068FEF7D1F90DD202200B49BC
:1024C000087000BF0AA10CA004F06AFB22A004F06F
:1024D00067FB00E001E000BF00E000BF00BF10BDEF
:1024E000D4010020D801002028380020200200203C
:1024F00050726F74656374005B424D5320494E46C1
:102500004F5D5B25735D00004F562052656C696519
:1025100076650D0A0000000055562052656C69650D
:1025200076650D0A000000004F54432052656C6927
:102530006576650D0A0000004F54442052656C69B1
:102540006576650D0A0000004C54432052656C69A5
:102550006576650D0A0000004C54442052656C6994
:102560006576650D0A00000070B504464FF47A7078
:1025700004FB00F529460748006804F0EBFA00BFA9
:1025800005A107A004F00CFB09A004F009FB00BFA3
:1025900070BD00001C02002050726F7465637400EF
:1025A0005B424D5320494E464F5D5B25735D0000F5
:1025B00050726F746563742054696D657220537432
:1025C0006172740D0A00000010B50B4800780128F4
:1025D00006D0022807D0032808D0042808D106E036
:1025E000FEF7F6FD05E0FEF791FE02E001E000E0F7
:1025F00000BF00BF10BD0000BA01002016E00C486B
:10260000007820B1012807D002280BD107E0FFF79E
:10261000DBFFFFF76BFD05E0FFF7D2FE02E0FFF7FF
:102620007DFE00BF00BFC82004F078F8E7E7000097
:102630002002002010B5044602200649087000BFA1
:1026400005A107A004F0ACFA09A004F0A9FA00BFA4
:1026500010BD00002002002050726F74656374008A
:102660005B424D5320494E464F5D5B25735D000034
:1026700050726F746563742054696D65722054697B
:10268000676765720D0A000000B589B018480090B0
:10269000184801901848029018480390184806906E
:1026A000184805901848049001208DF81C00052159
:1026B0008DF81D1001218DF81E108DF81F1040F6A9
:1026C0001C41ADF8201041F26801ADF8221002F073
:1026D00089FD684600F0BCF9FFF7ACFBFFF7CEFDC3
:1026E000FEF72EFBFFF740F8FFF7DCF809B000BD5E
:1026F000E921000855220008FD2100086922000890
:10270000291E0008A52000081122000838B5002065
:1027100000900024694600F011FB9DF8000000F0D5
:10272000010038B144F001042C48006810B12B4975
:10273000086880479DF8000000F0020038B144F0BE
:1027400002042648406810B12449486880479DF833
:10275000000000F0040038B144F004041F48806811
:1027600010B11E49886880479DF8000000F00800FD
:1027700038B144F008041948C06810B11749C86856
:1027800080479DF8000000F0100038B144F01004BC
:102790001248006910B11149086980479DF800008E
:1027A00000F0200038B144F020040C48406910B11A
:1027B0000A49486980479DF8000000F0800038B160
:1027C00044F080040548806910B104498869804755
:1027D0002146002000F04EFE38BD00007438002075
:1027E00070B504460D46ADB91948007804F01F01D4
:1027F00008431749087008464078C4F34411084359
:102800001349487008468078C4F38421084310496E
:10281000887016E0012D14D10D48007804F01F01D6
:1028200088430B49087008464078C4F34411884334
:102830000749487008468078C4F3842188430449D6
:10284000887003220249012000F082FD70BD000063
:10285000580200201CB518202649087140204871F4
:102860001920C8720822091D042000F071FD0822F9
:102870006946042000F07EF99DF8000000F07F001A
:102880001C490979884229D19DF8010019494979E3
:10289000884223D19DF802001649897988421DD1CA
:1028A0009DF803001349C979884217D19DF80400A7
:1028B0001049097A884211D19DF805000D49497ADD
:1028C00088420BD19DF806000A49897A884205D1D1
:1028D0009DF807000749C97A884209D000BF06A0C1
:1028E00004F05EF908A004F05BF900BF00BFFEE74A
:1028F0001CBD0000903800205B42513736395830FB
:10290000204552524F525D004251373639583020DF
:10291000636F6E666967207265676973746572209C
:102920006661696C2C506C656173652072657365B6
:102930007420424D5320626F6172640D0A000000E2
:1029400070B504460D462DB9084840792043074923
:10295000487104E005484079A043044948710348A0
:102960004179052000F086FD70BD00009038002000
:1029700010B50021042000F07DFD0121042000F0AD
:1029800079FD0221042000F075FD10BD2DE9F04114
:102990002A49502000F0D2F92849891C592000F01A
:1029A000CDF92649491C512000F0C8F92349343992
:1029B00091F8341001F00C0140F26D1202EB41016C
:1029C0001E4A343A92F8362001EB5210FDF791FE80
:1029D000064600221A4BFDF70FFE0446FDF718FFCE
:1029E000184908601548343890F8340000F00C009D
:1029F00040F26D1101EB40001049343991F8361066
:102A000000EB5110104908800C48343890F835001C
:102A100000F0800048B10948343890F83500404251
:102A2000404240B20949087006E00448343890F842
:102A3000350040B205490870BDE8F081C438002077
:102A400000408F40480200204C0200204E0200202F
:102A500070B50446FFF78CFF4FF4FA7003F05EFE8A
:102A600000F05AFCFFF792FF1C2221463048FDF788
:102A7000B7FB3048807920F00700801C2D49887111
:102A80000846C07920F00F00401CC871217F2948FA
:102A9000807961F3C40027498871617F2548C07936
:102AA00061F306102349C871A17F2248007A61F3BF
:102AB000871020490872E17F1E48007A61F30510F3
:102AC0001C490872618C1C4A92F90020881AFDF793
:102AD00002FE0646194801683046FDF736FC0546F9
:102AE000FDF73EFE00F6F870C0F30710114948727A
:102AF000218C114A92F90020881AFDF7ECFD064658
:102B00000E4801683046FDF720FC0546FDF728FE1B
:102B1000C0F3071007498872FFF79CFE00BF08A0AA
:102B200004F03EF80AA004F03BF800BF70BD0000BE
:102B300074380020903800204E0200204802002007
:102B40005B4251373639583020494E464F5D0000C0
:102B50004251373639583020496E697469616C6961
:102B60007A65207375636365737366756C210D0AEE
:102B7000000000002DE9F7438AB00D4616462021DB
:102B800001A8FDF746FB700004F05CFC07465FB946
:102B900000BF3FA004F004F842A004F001F800BF19
:102BA00000200DB0BDE8F0833C460820ADF80800D9
:102BB00000208DF80E000AA801900120ADF80A004F
:102BC0000821ADF8181001218DF81E100594710030
:102BD000ADF81A10022201A9364802F0F6FB0228CD
:102BE0000CD0384604F09EFD00BF33A003F0D8FFA0
:102BF00035A003F0D5FF00BF0020D2E711208DF8EB
:102C0000240020788DF825000722022109A800F071
:102C100053FD8046641C207840450CD0384604F0B3
:102C200081FD00BF24A003F0BBFF30A003F0B8FF7C
:102C300000BF0020B5E714F8010C28704FF001091F
:102C40001FE0641C07220121204600F035FD80466C
:102C5000641C6D1C207840450CD0384604F062FDA1
:102C600000BF15A003F09CFF2AA003F099FF00BF4E
:102C7000002096E714F8010C287009F1010000F01B
:102C8000FF09B145DDDB384604F04CFD012088E743
:102C90005B42513736395830205741524E494E47E2
:102CA0005D0000004D616C6C6F63204661696C0DC6
:102CB0000A000000280200205B42513736395830A4
:102CC000204552524F525D00526561642052656743
:102CD000697374657220426C6F636B205769746806
:102CE00020435243204361696C0D0A0052656164C0
:102CF00020526567697374657220426C6F636B2044
:102D0000435243203120436865636B204661696C00
:102D10000D0A00005265616420526567697374652D
:102D20007220426C6F636B2043524320436865639B
:102D30006B204661696C0D0A0000000033B58BB052
:102D40000D46202101A8FDF764FA0820ADF808001F
:102D500000208DF80E000BA801900120ADF80A00AC
:102D60000821ADF8181001218DF81E100AA8059051
:102D70000221ADF81A10022201A9184802F025FB21
:102D800002280AD000BF16A003F00AFF18A003F023
:102D900007FF00BF00200DB030BD11208DF82400CA
:102DA0009DF828008DF825000722022109A800F0CF
:102DB00083FC04469DF82900A04209D000BF08A06A
:102DC00003F0EEFE13A003F0EBFE00BF0020E2E7ED
:102DD0009DF8280028700120DDE70000280200206F
:102DE0005B42513736395830204552524F525D00C0
:102DF0005265616420526567697374657220427917
:102E00007465205769746820435243204661696C99
:102E10000D0A00005265616420526567697374652C
:102E20007220427974652043524320436865636B86
:102E3000204661696C0D0A0033B58BB00D46202128
:102E400001A8FDF7E6F90820ADF8080000208DF88C
:102E50000E000BA801900120ADF80A000821ADF882
:102E6000181001218DF81E100AA805900421ADF854
:102E70001A10022201A9244802F0A7FA02280AD057
:102E800000BF22A003F08CFE24A003F089FE00BF47
:102E900000200DB030BD11208DF824009DF82800D1
:102EA0008DF825000722022109A800F005FC044640
:102EB0009DF82900A04209D000BF14A003F070FEC5
:102EC0001FA003F06DFE00BF0020E2E707220121F2
:102ED0000DF12A0000F0F0FB04469DF82B00A04203
:102EE00009D000BF09A003F05BFE1FA003F058FE4D
:102EF00000BF0020CDE79DF828009DF82A1040EA89
:102F0000012028800120C4E7280200205B425137BD
:102F100036395830204552524F525D005265616437
:102F200020526567697374657220576F7264205709
:102F300069746820435243204661696C0D0A0000A1
:102F40005265616420526567697374657220576FBA
:102F5000726420435243203120436865636B2046EE
:102F600061696C0D0A00000052656164205265675A
:102F7000697374657220576F726420435243203224
:102F800020436865636B204661696C0D0A00000090
:102F90001FB54FF4004000900020019002900320E4
:102FA00003906946014800F097FE1FBD00080140EC
:102FB0001FB54FF4004000900120019000200290C6
:102FC000032003906946024800F086FE1FBD000002
:102FD0000008014070B51E492A20FFF72DFF38B9BF
:102FE00000BF1CA003F0DCFD1EA003F0D9FD00BF54
:102FF00017482A3890F82B0015492A3991F82A10D9
:1030000040EA01242046FDF76FFB05461D48016894
:103010004FF08140FDF767F906462946FDF763F951
:103020001949C861194991F9001001EB8100FDF7B8
:1030300052FB05461448C1692846FDF7FCF81249C1
:10304000C861C8691249FDF780F90F49C86170BDB0
:10305000BA3800205B425137363958302045525239
:103060004F525D00557064617465204261747465EF
:10307000727920566F6C74616765204661696C0DCA
:103080000A00000048020020C83800204E0200203C
:1030900000007A442DE9F05F0024A346A146A24631
:1030A0000A221E490C20FFF765FD38B900BF1CA09D
:1030B00003F076FD1EA003F073FD00BFDFF85C9007
:1030C000002426E099F8010099F8001000EB012097
:1030D0001FFA80FB1D48B0F900000BFB00F04FF415
:1030E0007A71B0FBF1FA1A4890F900008244504618
:1030F000FDF710FB07460022164BFDF77DFA05464B
:10310000FDF786FB144941F8240009F10209601C0F
:10311000C4B2052CD6DBBDE8F09F00009C3800202F
:103120005B42513736395830204552524F525D007C
:103130005570646174652043656C6C20566F6C74C7
:10314000616765204661696C0D0A00004C02002031
:103150004E02002000408F40C83800202DE9FF4774
:1031600020493220FFF768FE38B900BF1EA003F0E7
:1031700017FD21A003F014FD00BF1A48323890F863
:1031800033001849323991F8321040EA012A0AF422
:10319000004028B16FEA0A00401C80B2C0F1000A6A
:1031A0001B480068FDF7F0FA04460D465046FDF74F
:1031B000A0FA184A184BCDE90001FDF7ABF9064615
:1031C00022462B46FDF718FA8046144A144BFDF7A9
:1031D000A1F9CDE90201FDF71BFB12498861BDE8A9
:1031E000FF870000C23800205B4251373639583023
:1031F000204552524F525D00557064617465204302
:10320000757272656E74204661696C0D0A0000006B
:1032100054020020E17A14AE47E120408DEDB5A0C4
:10322000F7C6B03EC83800202DE9F84F4FF0000B2C
:10323000DA46D1462848007898B10020264908701F
:103240001821042000F016F938B900BF23A003F0BC
:10325000A7FC26A003F0A4FC00BF4FF4FA6003F023
:103260005DFA022229492C20FFF784FC38B900BFFF
:103270001AA003F095FC1DA003F092FC00BFDFF83C
:103280008C90002423E099F8010099F8001040EA9E
:10329000012B4FF4BF700BFB00F04FF47A71B0FBC1
:1032A000F1FA1FFA8AF002F01FFB0090FDF721FAF5
:1032B00007460022164BFDF79FF90546FDF7A8FAD1
:1032C000144941F8240009F10209601CC4B2012C20
:1032D000D9DBBDE8F88F0000500200205B42513777
:1032E00036395830204552524F525D005570646156
:1032F0007465205473782054656D706572617475BF
:103300007265204661696C0D0A000000BC3800201F
:1033100000002440DC38002010B5FFF749FE0122F0
:10332000D1030A4800F07AFE4FF47A7003F0F6F900
:1033300000224FF40041054800F070FEFFF728FE20
:103340004FF47A7003F0EAF910BD00000008014064
:103350002DE9FF4781460E46174600200090019058
:10336000029003907900881C04F06CF805465DB962
:1033700000BF28A003F014FC2BA003F011FC00BF39
:10338000002004B0BDE8F0872C46102004F8010BA3
:1033900004F8019B307804F8010B0722032128462A
:1033A00000F08AF920704FF001080EE0641C761CD2
:1033B0003078207007220121204600F07DF96070EE
:1033C000641C08F1010000F0FF08B845EEDB08209E
:1033D000ADF8040000208DF80A00681C0090780009
:1033E000401CADF8060001226946134801F0EDFFCC
:1033F000012809D000BF11A003F0D2FB13A003F0F5
:10340000CFFB00BF0020BCE7284604F08BF9012069
:10341000B7E700005B4251373639583020574152E8
:103420004E494E475D0000004D616C6C6F63204655
:1034300061696C0D0A000000280200205B425137D0
:1034400036395830204552524F525D0057726974D8
:103450006520526567697374657220426C6F636B97
:10346000205769746820435243204661696C0D0AF5
:103470000000000030B585B004460D4600200090E5
:1034800001900290039010208DF810008DF81140EB
:103490008DF812500722032104A800F00DF98DF8D1
:1034A00013000820ADF8040000208DF80A000DF18B
:1034B000110000900320ADF806000122694609487A
:1034C00001F083FF01280AD000BF07A003F068FBCA
:1034D00009A003F065FB00BF002005B030BD01204E
:1034E000FBE70000280200205B4251373639583094
:1034F000204552524F525D005772697465205265E3
:1035000067697374657220427974652057697468BD
:1035100020435243204661696C0D0A0010B5FFF745
:103520001DFE024880690249886010BDC83800202D
:103530002838002010B5FFF74DFD0248C069024948
:10354000486010BDC83800202838002070B500241D
:103550000025FFF769FE18E0114951F824001149D0
:10356000FDF77CF90FD80E4951F824000E49FDF7FC
:103570006BF908D80A4850F824202846691CCDB2B7
:103580000A4941F82020601CC4B209484079A04291
:10359000E2DC06488564294600F038F870BD00007A
:1035A000DC38002000005CC20000FA42283800200D
:1035B000BA01002010B5FFF76DFD002011E00F49A2
:1035C00051F820200E4941F820200C4951F82020C4
:1035D0000B49283941F8302001EBC0014860411CFB
:1035E000C8B2084909798142E9DC06480179064BED
:1035F00008220348283800F02CF810BDC8380020F5
:103600005C380020BA010020B96600082DE9F041BD
:1036100005460E46012718E0002412E0621C55F80A
:10362000221055F82400FDF719F909D255F8248025
:10363000601C55F8200045F82400601C45F82080E7
:10364000641CF01BA042E9D87F1CB742E4D3BDE85C
:10365000F0812DE9F04705460F46164699464FF092
:10366000000800244FF0010818E0002410E0621C5C
:1036700002FB065104FB0650C847002807DD621C08
:1036800002FB065104FB0650324603F0A8FF641CFF
:10369000A7EB0800A042EAD808F10108B845E4D336
:1036A000BDE8F08700BFFEE710B5024800F038F82B
:1036B00010BD00005C02002070B503460C460020DF
:1036C00016E0802111E000F080051DB14506280EAE
:1036D000504001E04506280E1D780D4005B15040D0
:1036E0000D4601EBD576C6F347010029EBD15B1CF3
:1036F000251EA4F10106F4B2E3D170BD704710B5E8
:103700004FF4805000F0DAFA10BD72B600BFFEE749
:1037100010B504462189206800F06EFC10BD70478A
:103720002DE9F05F04460025206846692068D0F83E
:103730000490206887682068D0F80CA02068D0F832
:1037400010B02068D0F8188006F00100002855D08D
:1037500007F00100C0B101202168886007F0020075
:1037600018B1204600F018FA0EE007F0040010B17E
:1037700045F4006508E007F0080010B145F48055F5
:1037800002E0204600F007FA07F48070C8B14FF459
:1037900080702168886007F4007018B1204600F03E
:1037A000FDF90EE007F4806010B145F4005508E023
:1037B00007F4006010B145F4804502E0204600F0B7
:1037C000ECF907F48030C8B14FF48030216888608C
:1037D00007F4003018B1204600F0E2F90EE007F4DB
:1037E000802010B145F4004508E007F4002010B136
:1037F00045F4803502E0204600F0D1F906F00800DB
:1038000038B10AF0100020B145F40075102021688D
:10381000C86006F0040040B10AF0080028B1082092
:103820002168C860204600F0B1F906F0020038B106
:103830002068C06800F0030010B1204600F0A7F92E
:1038400006F0400038B10BF0100020B145F480655F
:1038500010202168086106F0200040B10BF008003C
:1038600028B1082021680861204600F091F906F08F
:10387000100038B12068006900F0030010B1204644
:1038800000F087F906F4003040B109F0100028B1CB
:10389000102021684860204600F07CF906F4803052
:1038A00040B109F0080028B108202168486020468E
:1038B00000F077F906F4004088B309F0040078B30B
:1038C00006F4807020B108F0010008B145F0010550
:1038D00006F4007020B108F0020008B145F00205BE
:1038E00006F4806020B108F0040008B145F004053A
:1038F00006F40060A0B108F0700088B108F0700014
:10390000402817D006DC10280BD020280CD03028F7
:1039100019D10CE0502810D0602814D110E01DE01F
:1039200019E045F008050FE045F010050CE045F002
:10393000200509E045F0400506E045F0800503E07C
:1039400045F4807500E000BF00BF2068806920F06A
:103950007000216888610420216848602DB1606A88
:10396000284360622046FFF7DAFEBDE8F09F70B59D
:1039700004460CB9012070BD94F8200010B920460F
:1039800000F0B0F82068006840F00100216808608D
:1039900000F04AFB05460DE000F046FB401B0A28FC
:1039A00008D9606A40F400306062052084F8200085
:1039B0000120E0E72068406800F001000028EBD01B
:1039C0002068006820F002002168086000F02CFBED
:1039D00005460DE000F028FB401B0A2808D9606A64
:1039E00040F400306062052084F820000120C2E726
:1039F0002068406800F002000028EBD1207E0128FA
:103A000006D12068006840F080002168086005E069
:103A10002068006820F0800021680860607E01282E
:103A200006D12068006840F040002168086005E089
:103A30002068006820F0400021680860A07E01280E
:103A400006D12068006840F020002168086005E089
:103A50002068006820F0200021680860E07E0128CE
:103A600006D12068006820F010002168086005E099
:103A70002068006840F0100021680860207F01285D
:103A800006D12068006840F008002168086005E061
:103A90002068006820F0080021680860607F012825
:103AA00006D12068006840F004002168086005E045
:103AB0002068006820F0040021680860D4E9020151
:103AC000084321690843616908436168491E084346
:103AD0002168C86100206062012084F82000002075
:103AE00049E7000010B586B004460020029003901C
:103AF000049005902249206888423ED100BF2148A9
:103B0000C06940F000701F49C8610846C06900F0F4
:103B10000070019000BF00BF00BF0846806940F000
:103B2000040088610846806900F00400019000BF2D
:103B300000BFC814029000200390049002A912480C
:103B400000F0CAF84FF48050029002200390032046
:103B5000059002A90C4800F0BFF8002205211420AE
:103B600000F022FB142000F00FFB0022052115209D
:103B700000F01AFB152000F007FB06B010BD000096
:103B80000064004000100240000801407047704788
:103B9000704770477047704770477047704770476D
:103BA000704770470146002291F82100022808D092
:103BB0000420886300BF002081F8200000BF01209E
:103BC00070470868006820F00E000B6818600868ED
:103BD000006820F001000B68186091F84030012067
:103BE0009840CB6B5860012081F8210000BF002075
:103BF00081F8200000BF1046E2E7000070B50446DF
:103C0000002594F82100022803D00420A063012598
:103C100048E02068006820F00E00216808602068F5
:103C2000006820F00100216808601F492068884270
:103C300001D1012026E01C4914312068884201D1BD
:103C400010201FE0184928312068884201D18015D2
:103C500018E015493C312068884201D1801411E0F8
:103C6000114950312068884202D14FF4803009E078
:103C70000D4964312068884202D14FF4801001E080
:103C80004FF08070084908394860012084F821000D
:103C900000BF002084F8200000BF606B10B12046F8
:103CA000616B8847284670BD0800024010B5044685
:103CB000B4F5805F01D1FEF729FD10BD10B50446B3
:103CC00004480068204020B1024804602046FFF705
:103CD000EDFF10BD140401402DE9F8470346002212
:103CE00094466EE14FF0010808FA02F4D1F8008022
:103CF00008EA0400A0427DD1DFF8DCA2D1F80480FC
:103D0000A8EB0A09D0453AD014DCB8F1030F50D023
:103D100009DCB8F1000F31D0B8F1010F1CD0B8F1B7
:103D2000020F49D120E0B8F1110F18D0B8F1120FED
:103D300042D11EE0B9F5881F25D006DCB9F5803FD9
:103D400020D0B9F5801F37D11AE0B9F5001F18D07F
:103D5000B9F5041F30D117E0D1F80CC02DE0D1F82F
:103D60000C8008F1040C28E0D1F80C8008F1080C54
:103D700023E0D1F80C8008F10C0C1EE000BF00BF5E
:103D800000BF00BF00BF00BFD1F80880B8F1000F2E
:103D900002D14FF0040C0BE0D1F80880B8F1010F0C
:103DA00003D14FF0080C1C6102E04FF0080C5C617D
:103DB00003E04FF0000C00E000BF00BFFF2801D877
:103DC000984601E003F104084646FF2802D84FEA6E
:103DD000820803E0A2F108084FEA88084746D6F8AF
:103DE00000804FF00F0909FA07F928EA09080CFAD0
:103DF00007F900E088E048EA0908C6F80080D1F831
:103E0000048008F08058B8F1805F7DD100BFDFF8F2
:103E1000CC81D8F8188048F00108DFF8C091C9F8C3
:103E20001880C846D8F8188008F00108CDF800803E
:103E300000BF00BF4FEAB9384FEA920958F829503D
:103E40004FEA82784FEA18794FF00F0808FA09F81C
:103E500025EA0805DFF88881434502D14FF00008C4
:103E600016E0DFF88081434502D14FF001080FE0F2
:103E7000DFF87481434502D14FF0020808E0DFF813
:103E80006C81434502D14FF0030801E04FF0040874
:103E90004FEA82794FEA197908FA09F848EA0505E4
:103EA000DFF84C814FEA920948F82950D1F8048094
:103EB00008F48038B8F5803F0AD1DFF83881D8F8A7
:103EC000008048EA0008DFF82C91C9F8008009E07A
:103ED000DFF82081D8F8008028EA0008DFF8149184
:103EE000C9F80080D1F8048008F40038B8F5003F24
:103EF00010D1DFF8008108F10408D8F8008048EA02
:103F00000008DFF8F09000E05AE009F10409C9F870
:103F100000800DE0DFF8DC8008F10408D8F80080AC
:103F200028EA0008DFF8CC9009F10409C9F80080FC
:103F3000D1F8048008F48018B8F5801F0ED1DFF89E
:103F4000B48008F10808D8F8008048EA0008DFF8D3
:103F5000A49009F10809C9F800800DE0DFF8948009
:103F600008F10808D8F8008028EA0008DFF88490F3
:103F700009F10809C9F80080D1F8048008F4001894
:103F8000B8F5001F0ED1DFF86C8008F10C08D8F8E6
:103F9000008048EA0008DFF85C9009F10C09C9F8D4
:103FA00000800DE0DFF84C8008F10C08D8F80080A4
:103FB00028EA0008DFF83C9009F10C09C9F80080F4
:103FC000521CD1F8008028FA02F8B8F1000F7FF4F3
:103FD00089AEBDE8F8870000000011100010024013
:103FE00000080140000C0140001001400014014095
:103FF0000800014000040140024693680B400BB1E9
:10400000012000E00020704710B5C26821EA0203D9
:1040100002EA010443EA0443036110BD0AB10161ED
:1040200001E00B040361704701480068704700001D
:104030000400002003480068034909780844014946
:1040400008607047040000200C00002010B50848EC
:10405000006840F0100006490860032000F0E2F814
:104060000F2000F007F800F05FF8002010BD0000FE
:10407000002002402DE9F04188B004460027B846F0
:10408000002600BF2348C06940F004002149C861F0
:104090000846C06900F00400019000BF00BF02A9FB
:1040A00003A800F099F9069F1FB900F0BDF9054675
:1040B00002E000F0B9F945001748B5FBF0F0A0F1B7
:1040C000010816481649086040F2E7311448C160FB
:1040D000C0F80480002101618160816100F042FC30
:1040E000064696B90E4800F071FC06466EB91E20D1
:1040F00000F04AF8102C07D2002221461E2000F0C2
:1041000053F80848046000E00126304608B0BDE8D6
:10411000F08100000010024040420F000008004003
:104120000C0300200800002008B500BF1448806977
:1041300040F00100124988610846806900F00100E2
:10414000009000BF00BF00BF0846C06940F080502B
:10415000C8610846C06900F08050009000BF00BFF1
:1041600000220F21901E00F01FF800BF054948688B
:1041700020F0E06040F00070486000BF08BD000023
:10418000001002400000014001460846002809DBFB
:1041900000F01F0301229A4043099B0003F1E02332
:1041A000C3F8002100BF70472DE9F05F80460D463F
:1041B0001646002701F00AFE074639462A463346CE
:1041C00001F00700C0F1070ABAF1040F02D94FF05D
:1041D000040A01E0C0F1070AD14600F1040ABAF16D
:1041E000070F02D24FF0000A01E0A0F1030AD44603
:1041F0004FF0010A0AFA09FAAAF1010A0AEA020AC8
:104200000AFA0CFA4FF0010B0BFA0CFBABF1010BA5
:104210000BEA030B4AEA0B042146404601F0DEFD9F
:10422000BDE8F09F00BF00F00702064B19684FF68B
:10423000FF031940044B0B4343EA0221014B196071
:1042400000BF70470CED00E00000FA0570B50446B1
:104250000D460CB9012070BD5A48006800F00700F7
:10426000A8420ED25748006820F00700284355495D
:1042700008600846006800F00700A84201D001204D
:10428000E9E7207800F0020002281DD1207800F034
:104290000400042805D14C48406840F4E0604A49D5
:1042A0004860207800F00800082805D1464840689A
:1042B00040F46050444948604348406820F0F000B2
:1042C000A168084340494860207800F0010078B3B5
:1042D0006068012806D13C48006800F4003090B9BD
:1042E0000120B8E76068022806D13748006800F06E
:1042F000007040B90120AEE73348006800F00200CA
:1043000008B90120A7E73048406820F00300616841
:1043100008432D494860FFF787FE064609E0FFF78E
:1043200083FE801B41F28831884202D9032092E744
:1043300007E02548406800F00C006168B0EB810F91
:10434000EDD12048006800F00700A8420ED91D48B2
:10435000006820F0070028431A49086008460068F2
:1043600000F00700A84201D0012074E7207800F097
:104370000400042807D11448406820F4E060E16894
:10438000084311494860207800F00800082808D147
:104390000D48406820F46050216940EAC1000A4994
:1043A000486000F061F808494968C1F30311074A01
:1043B000515CC8400649086006480068FFF75AFE8D
:1043C000002048E70020024000100240FC8900085D
:1043D00010000020080000200F2202600D4A5268E1
:1043E00002F0030242600B4A526802F0F00282605F
:1043F000084A526802F4E062C260064A526802F457
:104400006052D2080261044A126802F007020A6090
:104410007047000000100240002002400148006880
:10442000704700001000002000B5FFF7F7FF0449B7
:104430004968C1F30221034A515CC84000BD000035
:10444000001002400C8A000800B5FFF7E7FF04499E
:104450004968C1F3C221034A515CC84000BD000055
:10446000001002400C8A0008F0B585B00FF26C0C09
:104470009CE8E01001A8A0E8E0101CA52D680095BC
:1044800000210022002300240020194D696801F05A
:104490000C05F5B1042D02D0082D19D101E0154805
:1044A00019E001ADC1F38346AC5D01F4803555B12F
:1044B0000F4D6D68C5F340451DF805200D4D654352
:1044C000B5FBF2F302E00C4D04FB05F3184602E0E5
:1044D00000BF084800BF00BF05B0F0BD02030405DF
:1044E000060708090A0B0C0D0E0F10100102000040
:1044F0000010024000127A0000093D00F8B50446A1
:104500000CB90120F8BD207800F00100002878D017
:10451000F848406800F00C0004280CD0F5484068CA
:1045200000F00C00082811D1F248406800F48030F7
:10453000B0F5803F0AD1EF48006800F40030002851
:104540005FD0606800285CD10120DBE700BF6068B5
:10455000B0F5803F06D1E748006840F48030E54977
:10456000086028E0606858B9E248006820F48030AC
:10457000E04908600846006820F4802008601AE0DE
:104580006068B0F5A02F0BD1DA48006840F48020B5
:10459000D84908600846006840F4803008600AE0A6
:1045A000D448006820F48030D2490860084600688A
:1045B00020F48020086000BF606888B1FFF734FDF8
:1045C000054606E0FFF730FD401B642801D90320B3
:1045D00098E7C848006800F400300028F2D010E0E6
:1045E000FFF722FD054606E0FFF71EFD401B64288D
:1045F00001D9032086E7BF48006800F40030002896
:10460000F2D1207800F00200022857D1B948406862
:1046100000F00C0050B1B748406800F00C000828CA
:1046200018D1B448406800F4803098B9B1480068A7
:1046300000F0020020B12069012801D0012061E7CB
:10464000AC48006820F0F800616940EAC100A9495F
:10465000086033E02069E8B10120A7490860FFF74E
:10466000E3FC054606E0FFF7DFFC401B022801D90A
:10467000032047E79F48006800F002000028F2D0BE
:104680009C48006820F0F800616940EAC10099493F
:10469000086013E0002098490860FFF7C5FC054654
:1046A00006E0FFF7C1FC401B022801D9032029E7DF
:1046B0009048006800F002000028F2D1207800F055
:1046C000080008282DD1A069B8B101208B490860E5
:1046D000FFF7AAFC054606E0FFF7A6FC401B0228F0
:1046E00001D903200EE78348406A00F00200002849
:1046F000F2D0012001F00CF813E000207F4908609F
:10470000FFF792FC054606E0FFF78EFC401B0228EF
:1047100001D90320F6E67748406A00F0020000283D
:10472000F2D1207800F00400042873D100277148EA
:10473000C06900F0805070B900BF6E48C06940F099
:1047400080506C49C8610846C06900F080500090F4
:1047500000BF00BF01276A48006800F48070B0B94C
:104760006748006840F4807065490860FFF75CFCAA
:10477000054606E0FFF758FC401B642801D90320DA
:10478000C0E65F48006800F480700028F2D000BFE7
:10479000E068012806D15748006A40F001005549F9
:1047A000086227E0E06858B95248006A20F001002A
:1047B000504908620846006A20F00400086219E0C7
:1047C000E06805280BD14B48006A40F004004949D5
:1047D00008620846006A40F0010008620AE04548A5
:1047E000006A20F00100434908620846006A20F090
:1047F0000400086200BFE068A0B1FFF715FC0546A1
:1048000009E0FFF711FC401B41F28831884202D9D0
:10481000032077E622E03748006A00F00200002813
:10482000EFD012E0FFF700FC054608E0FFF7FCFBC5
:10483000401B41F28831884201D9032062E62D48AD
:10484000006A00F002000028F0D1012F05D12948AC
:10485000C06920F080502749C86100BFE069C8B333
:104860002448406800F00C00082860D0E069022865
:1048700048D1002020490866FFF7D6FB054606E030
:10488000FFF7D2FB401B022801D903203AE6194862
:10489000006800F000700028F2D1206AB0F5803F77
:1048A00007D11448406820F40030A168084311493A
:1048B0004860D4E9080108430E49496821F474119D
:1048C00008430C49486001200B490866FFF7ACFB20
:1048D000054607E03DE0FFF7A7FB401B022801D992
:1048E00003200FE60348006800F000700028F2D0B3
:1048F0002FE00000001002400000424280044242CB
:1049000000700040002014490866FFF78DFB054643
:1049100006E0FFF789FB401B022801D90320F1E5DF
:104920000E48006800F000700028F2D111E0E06944
:10493000012800D1E6E50948466806F48031206A7E
:10494000814204D106F47011606A814201D00120D5
:10495000D8E50020D6E500000000424200100240E9
:104960007047704710B504460CB9012010BD94F88B
:104970003D0028B9002084F83C00204600F025F8CE
:10498000022084F83D00211D206800F073FF012003
:1049900084F8460000BF84F83E0001213F20015505
:1049A000402001554120015500BF00BF012084F87F
:1049B000420043200155442001554520015500BFC8
:1049C000012084F83D000020D0E77047014691F8AF
:1049D0003D00012801D001207047022081F83D00F0
:1049E0000868C06840F001000B68D860124B086886
:1049F00098420BD00868B0F1804F07D00F4B086881
:104A0000984203D00E4B086898420CD10868806821
:104A100000F00702062A0CD00868006840F0010088
:104A20000B68186005E00868006840F001000B683A
:104A300018600020D0E70000002C01400004004076
:104A400000080040704710B5044620680069C0F3B4
:104A50004000D8B12068C068C0F34000B0B16FF02A
:104A6000020021680861012020772068806900F039
:104A7000030018B12046FFF7E5FF05E0204600F0EF
:104A8000ADF8204600F0ABF80020207720680069E0
:104A9000C0F38000D8B12068C068C0F38000B0B116
:104AA0006FF0040021680861022020772068806987
:104AB00000F4407018B12046FFF7C4FF05E020461F
:104AC00000F08CF8204600F08AF80020207720685B
:104AD0000069C0F3C000D8B12068C068C0F3C0004E
:104AE000B0B16FF0080021680861042020772068C9
:104AF000C06900F0030018B12046FFF7A3FF05E0EE
:104B0000204600F06BF8204600F069F8002020777E
:104B100020680069C0F30010D8B12068C068C0F3F5
:104B20000010B0B16FF010002168086108202077F4
:104B30002068C06900F4407018B12046FFF782FF7A
:104B400005E0204600F04AF8204600F048F8002032
:104B500020772068006900F0010058B12068C06823
:104B600000F0010030B16FF00100216808612046BB
:104B700000F036F820680069C0F3C01058B1206812
:104B8000C068C0F3C01030B16FF0800021680861C8
:104B90002046FFF7E5FE20680069C0F3801058B199
:104BA0002068C068C0F3801030B16FF04000216809
:104BB0000861204600F020F820680069C0F340102A
:104BC00058B12068C068C0F3401030B16FF02000C9
:104BD000216808612046FFF7C4FE10BD704770478A
:104BE00010B5044603492068884201D1FFF722FA34
:104BF00010BD00000008004070477047704700007B
:104C00002DE9F84F0446206805682068C6682068CA
:104C100047694FF00009CA4605F00F09B9F1000FC6
:104C20000AD105F0200038B106F0200020B120465E
:104C300000F03DFFBDE8F88FB9F1000F71D007F02B
:104C4000010018B906F4907000286AD005F0010040
:104C500030B106F4807018B1206C40F0010020647F
:104C600005F0040030B107F0010018B1206C40F0ED
:104C70000200206405F0020030B107F0010018B115
:104C8000206C40F00400206405F0080048B106F0F4
:104C9000200010B907F0010018B1206C40F00800A6
:104CA0002064206C68B305F0200028B106F02000D5
:104CB00010B1204600F0FBFE20684069C0F3801A66
:104CC000206C00F0080010B9BAF1000F22D0204685
:104CD00000F0C2FE2068406900F04000B0B12068DA
:104CE000406920F0400021684861A06B50B15648EF
:104CF000A16B4863A06BFEF781FF10B1A06B416B05
:104D000088470CE02046FFF779FF08E02046FFF7D0
:104D100075FF04E02046FFF771FF0020206489E75B
:104D2000FFE7206B012878D105F01000002874D02F
:104D300006F01000002870D000BF0020009020680E
:104D40000068009020684068009000BF00BF2068A5
:104D5000406900F04000C0B3A06B006840681FFAD3
:104D600080F8B8F1000F2FD0A08D40452CDDA4F8BD
:104D70002E80A06B806920281FD02068C06820F496
:104D800080702168C8602068406920F001002168B7
:104D900048612068406920F0400021684861202077
:104DA00084F83E00002020632068C06820F01000D6
:104DB0002168C860A06BFEF7F5FEA08DE28D801A19
:104DC00081B22046FFF719FF34E7FFE7A08DE18DA0
:104DD000401A1FFA80F8E08DE8B1B8F1000F1AD040
:104DE0002068C06820F490702168C860206840691D
:104DF00020F0010021684861202084F83E00002056
:104E000020632068C06820F010002168C860414617
:104E10002046FFF7F2FE0DE7FFE705F0800030B116
:104E200006F0800018B1204600F032FF02E705F0DE
:104E3000400030B106F0400018B1204600F027FED7
:104E4000F8E600BFF6E60000455A000810B5044633
:104E50000CB9012010BDA06900B100E000BF94F8BA
:104E60003D0028B9002084F83C00204600F028F8D6
:104E7000242084F83D002068C06820F40050216898
:104E8000C860204600F086FE2068006920F490404B
:104E9000216808612068406920F02A002168486183
:104EA0002068C06840F400502168C8600020206479
:104EB000202084F83D0084F83E000020CAE700006E
:104EC00010B586B00446002002900390049005902F
:104ED0003749206888422FD100BF3648806940F4A6
:104EE0008040344988610846806900F48040019020
:104EF00000BF00BF00BF0846806940F00400886121
:104F00000846806900F00400019000BF00BF48150A
:104F10000290022003900320059002A92648FEF784
:104F2000DBFE4FF48060029000200390049002A901
:104F30002148FEF7D1FE39E020492068884235D16A
:104F400000BF1C48C06940F400301A49C8610846D7
:104F5000C06900F40030019000BF00BF00BF0846E8
:104F6000806940F0040088610846806900F0040010
:104F7000019000BF00BF0420029002200390032094
:104F8000059002A90C48FEF7A7FE08200290002019
:104F90000390049002A90848FEF79EFE0022052116
:104FA0002620FFF701F92620FFF7EEF806B010BD26
:104FB0000038014000100240000801400044004059
:104FC00070472DE9F84F04460E46174699464FF0B4
:104FD000000A94F83D0020285AD106B117B90120E3
:104FE000BDE8F88F00BF94F83C00012801D10220F1
:104FF000F6E7012084F83C0000BF00202064212057
:1050000084F83D00FFF710F88246A784E784A06883
:10501000B0F5805F04D1206910B90025B04602E0E8
:1050200035464FF0000800BF002084F83C0000BF68
:105030001BE05346002280212046CDF8009000F06E
:1050400057FE08B10320CBE745B9B8F80000C0F31C
:1050500008002168486008F1020803E02878216808
:1050600048606D1CE08C401EE084E08C0028E0D19C
:105070005346002240212046CDF8009000F038FE33
:1050800008B10320ACE7202084F83D000020A7E70A
:105090000220A5E7704700BF502080F31188BFF3BE
:1050A0004F8FBFF36F8F00BF70477047002080F3B2
:1050B000118800BF704700002DE9F05F81460D4662
:1050C00095F80A80A87A00F008070FB1002001E0E7
:1050D000D9F80C0000F0FF0A08F00200002833D0D5
:1050E000A888062101EAE01040F0F00695F804B027
:1050F00052463146484600F0EAF80446012C03D0F7
:1051000017B90020BDE8F09F5946484600F0B8F9AD
:105110000446012C02D00FB90020F3E708F001008B
:1051200028B3484600F0BEF846F001065246314624
:10513000484600F0CCF80446012C18D0BFB90DA0A9
:1051400001F02EFD0020DDE728794006060E08F06C
:10515000010008B146F0010652463146484600F0CB
:10516000B6F80446012C02D00FB90020CAE701208E
:10517000C8E700003C3C2D4932432D4552524F5266
:105180002D3E3E204E41434B3A2073656E64696E5E
:105190006720726570656174656420616464720D76
:1051A0000A0000001FB50446608921890843009069
:1051B000112001900020029003200390694620688E
:1051C000FEF78AFD618901222068FEF727FF218909
:1051D00001222068FEF722FF606908B160698047FC
:1051E0001FBD000010B50248FFF7DCFF002010BD16
:1051F0002802002070B504460026204600F0ACFAD4
:10520000012021698847204600F0B6FA80250EE08B
:10521000204600F091FA2046FEF77AFA00B12E43BC
:10522000204600F091FA0120216988476D10002D79
:10523000EED1204600F0AEFA304670BD2DE9F05FA9
:1052400080460C46D4F800904FF0000AE58824E030
:105250004046FFF7CFFF064689F800600AF10100DB
:105260001FFA80FA09F10109681E85B2A07A00F0E0
:10527000100090B94746AB46BBF1000F02D038464C
:1052800000F072FA012039698847384600F054FA74
:10529000384600F059FA00BF00BF002DD8DC504658
:1052A000BDE8F09F10B50446204600F055FA2046B0
:1052B00000F042FA012021698847204600F054FAA4
:1052C000012021698847204600F03EFA10BD2DE9F3
:1052D000F0410646884614460027002515E0414661
:1052E000304600F0CDF80746012F00D10FE0A5426F
:1052F00000D10CE0304600F053F8012031698847B6
:10530000304600F041F8681CC5B2A542E7D900BF9D
:105310003846BDE8F0812DE9F04781460C46266805
:105320000027B4F8068028E0A07A00F0400028B1F9
:10533000E17A484600F0A4F800B921E0A07A00F034
:10534000800020B1217B484600F09AF803E03178D4
:10535000484600F095F80546761C002D04DCA07A3E
:1053600000F0080038B135B9A8F101001FFA80F843
:10537000781C87B201E005B902E0B8F1000FD3DC78
:1053800000BF3846BDE8F08710B50446204600F05F
:10539000EBF9012021698847204600F0D5F910BDBE
:1053A00010B50446204600F0DFF901202169884746
:1053B000204600F0C1F9012021698847204600F00D
:1053C000CBF901202169884710BD2DE9F04705463A
:1053D0008846914600272DB1B8F1000F02D0B9F1EF
:1053E000000F02D13846BDE8F087A86908B1A86966
:1053F0008047002633E008EB0614A07A00F0080A84
:10540000A07A00F0040090B91EB12846FFF74AFFC9
:1054100002E02846FFF7B8FF21462846FFF74CFE7A
:105420000746012F03D0BAF1000F00D11BE0A07A8C
:1054300000F0010030B121462846FFF7FFFE074685
:1054400027810BE021462846FFF765FF07462781A5
:105450002089E188884201D0002704E0761C4E456F
:10546000C9D3374600BFA07A00F0200010B9284603
:10547000FFF796FFE86908B1E86980473846B2E768
:105480002DE9F04104460F46802513E0204600F048
:105490005BF907EA050018B1204600F05DF902E06B
:1054A000204600F061F9012021698847204600F07C
:1054B00043F96D10002DE9D1204600F045F9012097
:1054C000216988472646304600F046F901203169B7
:1054D0008847304600F030F9304600F04DF930464C
:1054E000FEF716F908B9012000E00020804630469A
:1054F00000F050F9304600F027F94046BDE8F08151
:1055000010B50F480F4908600920486000210D4878
:105510008160C1604FF4C02101614FF4E00141613D
:10552000002101760121417681760021C176017743
:105530004177FEF71CFA08B1FEF7E7F810BD00004E
:10554000006400405C02002010B5044A00210448B9
:1055500001F034FA0349086010BD0000D889000842
:10556000B55700080000002000B585B0002001906C
:1055700002900390049000BF4348806940F02000EF
:10558000414988610846806900F02000009000BF12
:1055900000BF00BF0846806940F0040088610846EB
:1055A000806900F00400009000BF00BF00BF084603
:1055B000806940F0080088610846806900F00800B2
:1055C000009000BF00BF012230213048FEF726FDC9
:1055D000012242F2E0712E48FEF720FD00224FF436
:1055E00080412B48FEF71AFD00224FF40041274866
:1055F000FEF714FD48F230000190012002900020D7
:1056000003900220049001A92048FEF765FB4FF4A7
:1056100080600190112002900020039002200490ED
:1056200001A91B48FEF758FB4FF480500190194820
:1056300002900020039001A91548FEF74DFB42F2AD
:10564000E03001900120029000200390032004909C
:1056500001A90F48FEF740FB4FF480400190012064
:105660000290002003900220049001A90848FEF750
:1056700033FB002205212820FEF796FD2820FEF7A7
:1056800083FD05B000BD000000100240000801408D
:10569000000C01400000111010B50B480B490860C8
:1056A0004FF4E1304860002108488160C160016129
:1056B0000C21416100218161C161FFF7C7FB08B185
:1056C000FEF723F810BD00000038014084020020DE
:1056D00010B50B480B4908604FF4E13048600021D9
:1056E00008488160C16001610C2141610021816134
:1056F000C161FFF7ABFB08B1FEF707F810BD000072
:1057000000440040C802002000BFFEE700BFFEE7E3
:1057100008B508490968C9084FF47A72B1FBF2F17B
:105720004143009100BF00BF00994A1E009200292A
:10573000F9D108BD1000002010B50446618901228E
:105740002068FEF76BFC10BD10B50446618900228D
:105750002068FEF763FC10BD10B5044621890122C4
:105760002068FEF75BFC10BD10B5044621890022BD
:105770002068FEF753FC10BD1FB504462089009039
:105780000020019002900320039069462068FEF7F4
:10579000A3FA1FBD1FB50446208900901120019077
:1057A000002002900320039069462068FEF794FAD7
:1057B0001FBD0000FCF768FF00BF20210348FEF773
:1057C00023FC4FF4FA7000F0A9FFF6E7000C01404B
:1057D00010B5502080F31188BFF34F8FBFF36F8F48
:1057E00002F0CAFE18B104494FF080500860002052
:1057F00080F3118810BD000004ED00E000B58FB00B
:10580000282105A8FAF705FD14216846FAF701FDDD
:1058100001200590000406900020079001200990C7
:1058200002200C90C1030D914FF4E0110E9105A8D8
:10583000FEF764FE08B1FDF768FF0F20009002201C
:105840000190002002904FF48060039000200490AB
:1058500002216846FEF7FAFC08B1FDF756FF0FB0CB
:1058600000BD704710B50248FFF7EDF810BD00000D
:105870000C03002010B50268184B984208D0B0F114
:10588000804F05D0164B984202D0164B984203D158
:1058900022F070024B681A43104B984208D0B0F1C6
:1058A000804F05D00E4B984202D00E4B984203D148
:1058B00022F44072CB681A4322F080034C6943EA19
:1058C000040202608B68C3620B688362034B9842D8
:1058D00001D10B6903630123436110BD002C01401A
:1058E000000400400008004030B50246202300219B
:1058F00000204C4C21784C4C34F8114094422ADD65
:1059000024E01E291FDA4C1CE1B2474C34F8114048
:1059100094421BDC01EB81046FF0C70505EBC4006A
:105920004C1E414D35F8144035F81150641B3E4D66
:1059300035F81150551B05EB8505ED0095FBF4F48A
:10594000041B20B206E04FF47A7003E05C1EE4B260
:10595000231ED6D149E04C1E334D35F814409442F5
:105960002BDC25E0012920DD4C1EE1B24C1E2E4D22
:1059700035F8144094421BDD01EB81046FF0C7053C
:1059800005EBC4004C1E284D35F8144035F8115075
:10599000641B254D35F81150551B05EB8505ED00B1
:1059A00095FBF4F4041B20B206E06FF0C70003E09F
:1059B0005C1EE4B2231ED5D117E001EB81046FF029
:1059C000C70505EBC4004C1E174D35F8144035F8DB
:1059D0001150641B144D35F81150551B05EB85050E
:1059E000ED0095FBF4F4041B20B20E4C217000F482
:1059F000004484B120F4004420B2C0F5004420B239
:105A00005A244443642594FBF5F0C0F30E0040F49F
:105A1000004420B205E05A244443642594FBF5F485
:105A200020B230BD4F020020F88A000810B501F006
:105A300087FD002805D042680168BDE81040104687
:105A4000084710BD70B505466C6A0020E085E0840B
:105A50002046FFF7D3F870BD0168C96821F4907142
:105A60000268D1600168496921F001010268516151
:105A7000016B012905D10168C96821F01001026894
:105A8000D160202180F83E1000210163704710B5DD
:105A900004462068C06820F040002168C8602020CB
:105AA00084F83D002046FFF7F5FA002010BDF8B558
:105AB000044694F83E00222869D1A068B0F5805FC2
:105AC0000CD1206950B90025A66A20684068C0F34F
:105AD00008003080A06A801CA06215E0A56A00263C
